{
  "_format": "hh-sol-artifact-1",
  "contractName": "CertificateRegistry",
  "sourceName": "contracts/CertificateRegistry.sol",
  "abi": [
    {
      "inputs": [],
      "stateMutability": "nonpayable",
      "type": "constructor"
    },
    {
      "inputs": [
        {
          "internalType": "bytes32",
          "name": "_hash",
          "type": "bytes32"
        }
      ],
      "name": "addCertificate",
      "outputs": [],
      "stateMutability": "nonpayable",
      "type": "function"
    },
    {
      "inputs": [],
      "name": "certificateCounter",
      "outputs": [
        {
          "internalType": "uint256",
          "name": "",
          "type": "uint256"
        }
      ],
      "stateMutability": "view",
      "type": "function"
    },
    {
      "inputs": [
        {
          "internalType": "uint256",
          "name": "",
          "type": "uint256"
        }
      ],
      "name": "certificates",
      "outputs": [
        {
          "internalType": "bytes32",
          "name": "certificateHash",
          "type": "bytes32"
        },
        {
          "internalType": "bool",
          "name": "isValid",
          "type": "bool"
        }
      ],
      "stateMutability": "view",
      "type": "function"
    },
    {
      "inputs": [],
      "name": "issuer",
      "outputs": [
        {
          "internalType": "address",
          "name": "",
          "type": "address"
        }
      ],
      "stateMutability": "view",
      "type": "function"
    },
    {
      "inputs": [
        {
          "internalType": "uint256",
          "name": "_id",
          "type": "uint256"
        }
      ],
      "name": "revokeCertificate",
      "outputs": [],
      "stateMutability": "nonpayable",
      "type": "function"
    },
    {
      "inputs": [
        {
          "internalType": "bytes32",
          "name": "_hash",
          "type": "bytes32"
        }
      ],
      "name": "verifyCertificate",
      "outputs": [
        {
          "internalType": "bool",
          "name": "",
          "type": "bool"
        }
      ],
      "stateMutability": "view",
      "type": "function"
    }
  ],
  "bytecode": "0x608060405234801561001057600080fd5b50336000806101000a81548173ffffffffffffffffffffffffffffffffffffffff021916908373ffffffffffffffffffffffffffffffffffffffff1602179055506107d8806100606000396000f3fe608060405234801561001057600080fd5b50600436106100625760003560e01c806306f5497e146100675780631d14384814610083578063663b3e22146100a157806367764b26146100d2578063750f9f87146100f0578063850c17681461010c575b600080fd5b610081600480360381019061007c919061048a565b61013c565b005b61008b610266565b60405161009891906104f8565b60405180910390f35b6100bb60048036038101906100b6919061048a565b61028a565b6040516100c9929190610547565b60405180910390f35b6100da6102bb565b6040516100e7919061057f565b60405180910390f35b61010a600480360381019061010591906105c6565b6102c1565b005b610126600480360381019061012191906105c6565b6103c5565b60405161013391906105f3565b60405180910390f35b60008054906101000a900473ffffffffffffffffffffffffffffffffffffffff1673ffffffffffffffffffffffffffffffffffffffff163373ffffffffffffffffffffffffffffffffffffffff16146101ca576040517f08c379a00000000000000000000000000000000000000000000000000000000081526004016101c19061066b565b60405180910390fd5b600115156002600083815260200190815260200160002060010160009054906101000a900460ff16151514610234576040517f08c379a000000000000000000000000000000000000000000000000000000000815260040161022b906106d7565b60405180910390fd5b60006002600083815260200190815260200160002060010160006101000a81548160ff02191690831515021790555050565b60008054906101000a900473ffffffffffffffffffffffffffffffffffffffff1681565b60026020528060005260406000206000915090508060000154908060010160009054906101000a900460ff16905082565b60015481565b60008054906101000a900473ffffffffffffffffffffffffffffffffffffffff1673ffffffffffffffffffffffffffffffffffffffff163373ffffffffffffffffffffffffffffffffffffffff161461034f576040517f08c379a00000000000000000000000000000000000000000000000000000000081526004016103469061066b565b60405180910390fd5b60018060008282546103619190610726565b925050819055506040518060400160405280828152602001600115158152506002600060015481526020019081526020016000206000820151816000015560208201518160010160006101000a81548160ff02191690831515021790555090505050565b600080600190505b6001548111610444578260026000838152602001908152602001600020600001541480156104225750600115156002600083815260200190815260200160002060010160009054906101000a900460ff161515145b1561043157600191505061044a565b808061043c9061075a565b9150506103cd565b50600090505b919050565b600080fd5b6000819050919050565b61046781610454565b811461047257600080fd5b50565b6000813590506104848161045e565b92915050565b6000602082840312156104a05761049f61044f565b5b60006104ae84828501610475565b91505092915050565b600073ffffffffffffffffffffffffffffffffffffffff82169050919050565b60006104e2826104b7565b9050919050565b6104f2816104d7565b82525050565b600060208201905061050d60008301846104e9565b92915050565b6000819050919050565b61052681610513565b82525050565b60008115159050919050565b6105418161052c565b82525050565b600060408201905061055c600083018561051d565b6105696020830184610538565b9392505050565b61057981610454565b82525050565b60006020820190506105946000830184610570565b92915050565b6105a381610513565b81146105ae57600080fd5b50565b6000813590506105c08161059a565b92915050565b6000602082840312156105dc576105db61044f565b5b60006105ea848285016105b1565b91505092915050565b60006020820190506106086000830184610538565b92915050565b600082825260208201905092915050565b7f5965746b696e20796f6b2c2069737375657220646567696c73696e2e00000000600082015250565b6000610655601c8361060e565b91506106608261061f565b602082019050919050565b6000602082019050818103600083015261068481610648565b9050919050565b7f536572746966696b61207a6174656e20676563657273697a2e00000000000000600082015250565b60006106c160198361060e565b91506106cc8261068b565b602082019050919050565b600060208201905081810360008301526106f0816106b4565b9050919050565b7f4e487b7100000000000000000000000000000000000000000000000000000000600052601160045260246000fd5b600061073182610454565b915061073c83610454565b9250828201905080821115610754576107536106f7565b5b92915050565b600061076582610454565b91507fffffffffffffffffffffffffffffffffffffffffffffffffffffffffffffffff8203610797576107966106f7565b5b60018201905091905056fea26469706673582212200e38bf561be519bfa6bc7f144cee0e1a0bc59166a0298f29f731818999e414e464736f6c63430008140033",
  "linkReferences": {},
  "deployedLinkReferences": {}
}